:100000000C9445030C948C030C948C030C948C037B
:100010000C948C030C948C030C948C030C948C0324
:100020000C948C030C948C030C94162B0C94E82BDE
:100030000C9454210C948C030C948C030C948C031E
:100040000C948C030C948C030C948C030C948C03F4
:100050000C948C030C94BC210C948C030C948C0396
:100060000C948C030C948C030C948C030C948C03D4
:100070000C948C030C948C030C948C030C948C03C4
:100080000C948C030C948C030C948C030C948C03B4
:100090000C948C030C948C030C948C030C948C03A4
:1000A0000C948C030C948C030C948C030B060D069F
:1000B00018060F0611061306150617061A061C0663
:1000C0001E062906200622062406260628062B06DA
:1000D000D416D4160617061753177317F818F818FE
:1000E000B517521863186318C418CD18F818F1180A
:1000F0007A197A198C198C1983198C198C198C1905
:100100007A197A1988198C198C198819552C7C2C14
:100110006E2D7C2C6E2DC82CEB2C6E2D412D502D70
:1001200029411E001F00200021002200230024007E
:100130002500260027002D002E0000002A002B009D
:10014000000014001A000800150017001C00180019
:100150000C00120013002F003000310029000000B5
:1001600004001600070009000A000B000D000E0035
:100170000F003300340028000000E10035421D006C
:100180001B000600190005001100100036003700A2
:1001900038000000E5000000E000E2000000E3009D
:1001A000000000002C00000000000000E7005000EC
:1001B000510052004F0001003A003B003C003D005E
:1001C0003E003F0040004100420043004400450023
:1001D00000004C0000000000BE00BD000000AC00AC
:1001E000AE00BB007F008100800000000000000026
:1001F000005C000000000000A600000000000000FD
:1002000000000000000000000000000000000000EE
:1002100000000000000000000000000000000000DE
:1002200000000000000000000000000000000000CE
:1002300000000000000000000000000000000000BE
:1002400000000000000000000000000000000000AE
:10025000000000000000000000000000000000009E
:100260000000068000000000000000000000000008
:10027000000000000000000000000000000000007E
:10028000000080C00000000000000000000000002E
:10029000000000000000000000000000000082C11B
:1002A00084C2000000000000000000000000000008
:1002B000000000000000000000000000000000003E
:1002C000000000000000000000000000000000002E
:1002D000000000000000000000000000000000001E
:1002E0000000FC000000DC000000F6000000D6006A
:1002F0000000E4000000C4000000DF000000000473
:100300007F3F1F643214643214783C1E1E140A05A9
:100310002223252628292A2C2D2F30323335363812
:100320003A3B3D3E4042434547494A4C4E5051536B
:100330005557595A5C5E6062646668696B6D6F718F
:10034000737577797B7D7F81838587898A8C8E9091
:10035000929496989A9C9E9FA1A3A5A7A8AAACAE9A
:10036000AFB1B3B4B6B8B9BBBCBEBFC1C2C3C5C6DA
:10037000C7C9CACBCCCDCED0D1D2D2D3D4D5D6D783
:10038000D7D8D9D9DADADBDBDBDCDCDCDCDCDDDDC1
:10039000DDDDDCDCDCDCDCDBDBDBDADAD9D9D8D7B1
:1003A000D7D6D5D4D3D2D2D1D0CECDCCCBCAC9C753
:1003B000C6C5C3C2C1BFBEBCBBB9B8B6B4B3B1AF8A
:1003C000AEACAAA8A7A5A3A19F9E9C9A989694922A
:1003D000908E8C8A89878583817F7D7B7977757301
:1003E000716F6D6B6968666462605E5C5A595755DF
:1003F0005351504E4C4A4947454342403E3D3B3A9B
:100400003836353332302F2D2C2A29282625232221
:10041000FFAA7F554000000000000000000000011E
:1004200001010101010101010202020202020202B4
:10043000030303030303030404040404050505057F
:10044000050606060606070707070808080809093B
:10045000090A0A0A0B0B0B0C0C0C0D0D0D0E0E0EDF
:100460000F0F10101011111212131314141515166A
:10047000161717181819191A1A1B1C1C1D1D1E1FD8
:100480001F20212122232324252526272828292A25
:100490002B2C2C2D2E2F303131323334353637384A
:1004A000393A3B3C3D3E3F40414243444546474844
:1004B000494B4C4D4E4F50525354555758595A5C16
:1004C0005D5E606163646567686A6B6C6E6F7172B4
:1004D000747677797A7C7D7F8182848687898B8D1B
:1004E0008E9092949597999B9D9FA1A2A4A6A8AA4D
:1004F000ACAEB0B2B4B6B9BBBDBFC1C3C5C8CACC3F
:10050000CED0D3D5D7DADCDEE1E3E6E8EAEDEFF2F0
:10051000F4F7F9FCFF0403300000000A0344005A1A
:100520000036003000000010034B0042004400463B
:100530000061006E00730000000403090409023B1F
:1005400000020100A0FA09040000010301010009F2
:1005500021110100012240000705810308000A095A
:10056000040100010300000009211101000122C063
:10057000000705820320000A120110010000000894
:10058000EDFE602201000102030105010902A10143
:1005900085020901A1000509190129051500250198
:1005A00095057501810295017503810105010930E9
:1005B00009311581257F9502750881060938158155
:1005C000257F950175088106050C0A3802158125DD
:1005D0007F950175088106C0C005010980A10185CC
:1005E000031601002603001A81002A830075109566
:1005F000018100C0050C0901A10185041601002636
:100600009C021A01002A9C02751095018100C00508
:10061000010906A1018505050719E029E71500254F
:1006200001950875018102050819012905950575CF
:100630000191029501750391010507190029EF1534
:1006400000250195F075018102C005010906A1018F
:10065000050719E029E715002501950875018102B4
:100660009501750881010508190129059505750190
:1006700091029501750391010507190029FF1500E5
:1006800026FF00950675088100C011241FBECFEF1C
:10069000DAE0DEBFCDBF04B603FE27C08091AF0213
:1006A0009091B002A091B102B091B2028730904B0C
:1006B000A740B04BD1F41092AF021092B00210924A
:1006C000B1021092B20214BE84B7877F84BF0FB606
:1006D000F894A895809160008861809360001092E2
:1006E00060000FBEE0E0F8E3099511E0A0E0B1E0A2
:1006F000E6EEFCE502C005900D92AC35B107D9F7E6
:1007000022E0ACE5B1E001C01D92AF3AB207E1F7DB
:100710000E9438280C94712E0C9400000C94480A06
:10072000229A2A9A08950E94470A0C94900381FF06
:1007300002C02A9801C02A9A0C947305CF93DF93C4
:100740008A32910509F048C0EB010E941F1F81FF0A
:1007500004C08A81882339F10DC00E941F1F85FDC6
:10076000F8CF80915D018111F4CF80915C018111FE
:10077000F0CF19C00E941F1F81FF06C081E0809347
:100780005D0181EE0E9419160E941F1F85FF06C0A1
:1007900081E080935C0185EE0E9419168CE40E9432
:1007A000FB1480E02DC08A81811129C08CE40E9455
:1007B000191680915D01882329F010925D0181EE68
:1007C0000E94FB1480915C018823C9F010925C01A7
:1007D00085EE0E94FB1413C0813E910539F4FB01A4
:1007E000828181110CC010925D0109C0853E910586
:1007F00031F4FB018281811103C010925C0181E020
:10080000DF91CF9108950F931F93CF93DF939C01B6
:100810003A9521153F4148F5EB018C0190FF03C04B
:1008200080EEFB01099511FF03C081EEFE010995E1
:1008300012FF03C082EEFE01099513FF03C083EE91
:10084000FE0109950115104180F084EEFE01099525
:1008500085EEFE01099586EEFE01099587EEFE0103
:10086000DF91CF911F910F910994DF91CF911F914B
:100870000F910895877091E001C0990F8A95EAF76A
:10088000892F0E94351F0C946E1F877091E001C064
:10089000990F8A95EAF7892F0E94351F0C946E1FD5
:1008A000877091E001C0990F8A95EAF7892F0E941D
:1008B0003B1F0C946E1F877091E001C0990F8A95C1
:1008C000EAF7892F0E943B1F0C946E1FCF93DF9392
:1008D000EC01805E9109089710F0209719F465E407
:1008E00074E002C06AE374E0CE010E9403048C2F1E
:1008F000DF91CF910C94FB14CF93DF93EC010E9416
:100900001916CE01805E9109089710F0209719F40E
:100910006BE574E002C060E574E0CE01DF91CF9139
:100920000C940304CF93DF93EC010E946604CE0184
:10093000DF91CF910C947C0481E008950C949E0388
:100940001F93CF93DF9300D000D01F92CDB7DEB7B7
:1009500049835A832091980189819A81211112C07B
:10096000662349F00E949F1E182F682F89819A8163
:100970000E94441E03C00E94731E182F69817A8151
:10098000812F04C00E949F1E69817A810F900F9071
:100990000F900F900F90DF91CF911F910C949C07B7
:1009A000FC01408151816281738184810C94A00497
:1009B0000C948E03E82FE295EF70F0E032A1282F1F
:1009C0002F7081E090E001C0880F2A95EAF78095AA
:1009D000832382A30895CF92DF92EF92FF92863015
:1009E00030F4811105C0909180009F7D04C085E0A6
:1009F00090918000906290938000282F30E0AFEFBC
:100A0000BFEF0E94022E25E030E040E050E00E945F
:100A1000DA2D2C3784E138074105510530F4C9013E
:100A200069E070E00E94B22D29C0DA01C9018A5044
:100A3000974DAF4FBF4F6627782F892F9A2F25EFFD
:100A400038E241E050E00E94DA2D69017A01CA01E2
:100A5000B9010E94A22D9B01AC01C701B6010E9401
:100A6000A22DBB27A92F982F872F009721E0A2073F
:100A7000B10511F0BC0102C06FEF7FEF70938B00E6
:100A800060938A00FF90EF90DF90CF900895269AB0
:100A900086E30E94DA0482E28093800089E18093F9
:100AA00081008FEF9FEF90938700809386000C94D6
:100AB0009C250E94D21F811102C00E946B200E94BF
:100AC00047050E94410C0C949303282F2F7041F08E
:100AD000822F90E02A3010F44D96089506970895DD
:100AE00087E290E0089508950C94970308950E947A
:100AF0006A190E9476052FEF84E39CE02150804024
:100B00009040E1F700C000000C94E2210F931F9386
:100B1000CF93DF938C010E94D004EC01B8010E94B6
:100B20009E04882309F4FEC1B801CE010E94AF0CD7
:100B3000882309F4F7C1B801CE010E94411388232C
:100B400009F4F0C1CA3CFCE5DF0741F4F8018281F9
:100B5000882309F4E7C10E949C0FE4C1CB3C8CE5DB
:100B6000D80708F012C1C33C9CE5D90761F4F8012D
:100B70008281882309F4D6C10E941F1F8272E1F08E
:100B80000E94B511CFC1C43CECE5DE07C0F0C63C05
:100B90009CE5D90709F4CAC008F0DCC0C43CFCE5F8
:100BA000DF0709F0CBC0F8018281882309F4BAC1BC
:100BB0000E941F1F827221F30E94A811B3C1C53188
:100BC000FCE5DF0708F07BC0C2308CE5D80708F4ED
:100BD00052C0F8018281882309F454C00E94D21FB8
:100BE000811102C00E946B200E94EF1F90E0909341
:100BF000A00280939F02FE01E350FC45E231F10523
:100C000030F4EA5AFF4F80919F020C94FC2D8091A2
:100C10009F02816027C0826025C0846023C08061FC
:100C200021C080621FC080641DC080681BC08460BA
:100C3000886018C08E7F16C08D7F14C08B7F12C055
:100C40008F7E10C08F7D0EC08F7B0CC08F770AC047
:100C50008B7F877F07C087FB222720F991E09227AF
:100C600090FB87F980939F0280919F020E94F31F5F
:100C70000E946A1957C1C1159CE5D90751F0C130CE
:100C8000DC4579F0C801DF91CF911F910F910C9451
:100C90009C04F8018281882309F444C10E947705ED
:100CA00041C1F8018281882309F43CC1809130025E
:100CB000982F909590FB80F98093300233C1C63114
:100CC000FCE5DF0739F50E941F1F282FF8018281FC
:100CD0004091100150911101882379F02A7A91E016
:100CE00009F490E090935E01911102C069E201C0A5
:100CF00065E3CA010E94D2200AC080915E01811181
:100D000002C069E201C065E3CA010E94DD200E94C1
:100D10006E1F08C1C23CDC4509F0B4CFF8018281E6
:100D2000882309F4FFC00E94C311FCC0F80182812E
:100D3000882309F4F7C00E94600FF4C0C53CDC456D
:100D400009F0A0CFF8018281882309F4EBC00E944A
:100D5000530FE8C0F8018281C83CFCE5DF0731F49D
:100D6000882309F4DFC00E947E0FDCC0C93CDC454B
:100D700030F4882309F4D6C00E946F0FD3C08823B3
:100D800009F4D0C00E948D0FCDC0C13DECE5DE0757
:100D900091F4F8018281882309F4C4C00E94CE0D29
:100DA0008F3028F00E94CE0D843108F405CF8FE0FB
:100DB0000E94B811B7C0C23DFCE5DF0708F05AC079
:100DC000CD3C8CE5D80739F4F8018281882309F4F9
:100DD000A9C081E0EDCFCE3C9CE5D907C0F4CB3C67
:100DE000ECE5DE0741F4F8018281882309F49AC01A
:100DF0000E94D60D97C0CC3CDC4509F043CFF801EA
:100E00008281882309F48EC00E94E70D8BC0F8010F
:100E10008281CF3CFCE5DF0771F4882309F482C0AE
:100E20000E94CE0D863028F00E94CE0D883008F446
:100E3000C3CE86E0BDCFC03DDC4570F4882309F405
:100E400071C00E94CE0D823028F00E94CE0D8530F8
:100E500008F4B2CE82E0ACCF882309F463C00E94CC
:100E6000CE0D893028F00E94CE0D8E3008F4A4CE2D
:100E700089E09ECFC53DECE5DE0739F4F8018281BB
:100E8000882309F44FC083E293CFC63DFCE5DF071A
:100E900040F5F8018281C33DFCE5DF0729F4882392
:100EA00009F440C088E184CFC43DDC4568F4882360
:100EB000C9F10E94CE0D853128F00E94CE0D8731F8
:100EC00008F47ACE85E174CF882361F10E94CE0DBB
:100ED000893128F00E94CE0D823208F46DCE89E16E
:100EE00067CFCD3DECE5DE0741F4F8018281882330
:100EF000C9F082E00E94D92815C0CE3DFCE5DF078D
:100F000039F4F8018281882369F00E946B200AC0BD
:100F1000CC3DDC4509F0B6CEF8018281882311F082
:100F200080E0E8CF80E0DF91CF911F910F9108958D
:100F300080E090E0089508959FE0799FF0011124EA
:100F40009BE4899FE00DF11D1124E60FF11DEE0FCA
:100F5000FF1FE05EFE4F859194910895880F991FC1
:100F6000FC01E250FD4F859194910895CF93DF935A
:100F70000E949C070E94A709EC01811521E59207B8
:100F800008F042C0811560E5960708F02FC1883E41
:100F9000910500F5803E910508F0D5C1883A91058C
:100FA00070F4853A910508F0A4C08130910509F4E8
:100FB000CAC108F47BC1049708F0C5C177C18F3B53
:100FC000910508F4A1C0803C910508F46FC1805CD4
:100FD0009109FBC0C11580E3D80780F4C11590E2E8
:100FE000D90708F0F0C0C03FD10508F45FC1CF3F7A
:100FF000D10511F008F0A7C1D065A5C1C11520E445
:10100000D20708F0F0C0E5C0811569E5960760F5E4
:10101000C11588E5D80708F035C1C11594E5D90791
:1010200078F4C11523E5D20708F011C1C11562E5B6
:10103000D60708F0F6C0DC2FCC27C16FD06A83C179
:10104000C11585E5D80708F418C1C11596E5D9077B
:1010500008F02CC18C2F0E94240A8F71C82FD0E079
:10106000DC2FCC27D0626FC18D3B2CE5920709F4B1
:1010700014C1E0F4CB3B8CE5D80709F408C108F0B3
:1010800009C1C1152AE5D20708F010C18C2F8F7055
:101090000E94240A94E0D695C7959A95E1F7CF70FF
:1010A000D0E0DC2FCC27D069C82B4DC1803C9C45BB
:1010B00009F4F9C0C13C8CE5D80760F4CE3B9CE54F
:1010C000D90709F4EDC0CF3BDC4509F0EFC0C0E023
:1010D000D2ED39C1CE0190568115904208F0E6C09C
:1010E0008D2F8F710E94240ADD27D0628F71D82B3B
:1010F0002AC1853A910509F4DCC0863A910509F0C8
:10110000DBC0C2E8D0E41FC1883A910509F4D7C01A
:10111000893A910509F4D6C08A3A910509F4D5C0F7
:101120008B3A910509F4D4C08C3A910509F4D3C0E7
:101130008B3B910509F4D2C08C3B910509F4D1C0D9
:101140008D3A910509F4D0C0803B910509F4CFC0D8
:101150008E3A910509F4CEC08F3A910509F4CDC0BD
:10116000813B910509F4CCC0823B910509F4CBC0C9
:10117000833B910509F4CAC0843B910509F4C9C0B9
:10118000853B910509F4C8C0863B910509F4C7C0A9
:10119000873B910509F4C6C0883B910509F4C5C099
:1011A000893B910509F4C4C08D3B910509F4C3C086
:1011B0008E3B910509F4C2C08A3B910509F4C1C078
:1011C000C0E0D4E4C0C0CE019F700E94AE07EC0125
:1011D000BAC0CE019927D3FF03C0EC01D86CB3C0CD
:1011E000EC01D06CB0C0DF70D06AADC0837021E07C
:1011F00030E002C0220F331F8A95E2F73C68CE012F
:1012000074E0969587957A95E1F78370382BCF70C7
:10121000C695C69580E2C89FE0011124C22BD32B4E
:1012200092C04C2F4695469590E2499FA00111240B
:10123000C370DD2721E030E0C90102C0880F991F8B
:10124000CA95E2F7EC01C42BD52BDC687CC04C2F8F
:101250004695469580E2489FA0011124C370DD2782
:1012600021E030E0C90102C0880F991FCA95E2F75A
:10127000EC01C42BD52BDA6866C0DC2FCC27C46FF9
:10128000D06A61C0DC2FCC27C06FD06A5CC0C0E0E0
:10129000D4ED59C0C0E0D5ED56C0C0E0D1ED53C08B
:1012A000C0E0D0ED50C0C0E0D3ED4DC0C0E0D0E014
:1012B0004AC0C1E8D0E447C0C3E8D0E444C0C2EEAD
:1012C000D4E441C0C9EED4E43EC0CAEED4E43BC08D
:1012D000C5EBD4E438C0C6EBD4E435C0C3EBD4E4EA
:1012E00032C0C4EBD4E42FC0C7EBD4E42CC0CCECA8
:1012F000D4E429C0CDECD4E426C0C3E8D5E423C0AF
:10130000CAE8D5E420C0C2E9D5E41DC0C4E9D5E4EB
:101310001AC0C1E2D6E417C0C3E2D6E414C0C4E2E6
:10132000D6E411C0C5E2D6E40EC0C6E2D6E40BC0D6
:10133000C7E2D6E408C0CFE6D4E405C0C0E7D4E4F1
:1013400002C0CAE2D6E4CE01DF91CF91089582387F
:10135000910549F1B0F48133910509F458C048F47E
:101360008932910509F44EC08A32910509F454C0BE
:1013700008958533910509F440C08933910599F0AA
:101380000895833E910529F138F4803E910591F04E
:10139000823E9105A1F00895863E9105F9F0873EC1
:1013A000910531F1089520919F0220FD3AC021FD61
:1013B00038C0089580919F0280FD35C032C0809171
:1013C0009F0282FF32C080919F0284FD30C083EE75
:1013D00039C080919F0282FD28C0F5CF80919F0285
:1013E00083FF27C080919F0284FD21C087EE2AC021
:1013F00080919F0283FD1DC0F5CF80919F0285FDE6
:101400001AC01BC080919F0285FD17C014C0809137
:101410009F0286FD14C015C080919F0286FD11C0F9
:101420000EC080EE0FC089E30DC082EE0BC080E0DD
:1014300009C086EE07C089E205C085E303C08AE2E1
:1014400001C081E390E0089590919F0292FF0DC04A
:10145000282F2871283019F4877F846006C0282F30
:101460002471243011F48B7F886093FF0DC0282FE6
:101470002871283119F4877E846106C0282F2471D1
:10148000243111F48B7E886194FD877E0895089540
:101490000895E82FF0E0EE0FFF1FE15AFE4F808124
:1014A000918108950895A2E3B1E041E050E025E084
:1014B0002A0F8D91E82FE295EF70F0E031A18F7047
:1014C000BA0102C0660F771F8A95E2F7CB01962F0B
:1014D0009095932391A392A1892B82A32A13E9CFFC
:1014E000A3E2B1E041E050E02FE02A0F8D91E82F18
:1014F000E295EF70F0E031A18F70BA0102C0660F83
:10150000771F8A95E2F7CB01962F9095932391A3AD
:1015100092A1892B82A32A13E9CFE9E6F1E0AFE596
:10152000B1E0119211921D921D9271E0E337F7071D
:10153000C1F785E00E94350B0C9459055F926F92BC
:101540007F928F929F92AF92BF92CF92DF92EF9253
:10155000FF920F931F93CF93DF9302E311E0A9E66D
:10156000B1E0612CEE24E394F12C5D018D909C9010
:10157000119711961C921E92E80189918E01E82F15
:10158000E295EF70F0E091A18F70A70101C0440FC8
:101590008A95EAF7892F842B81A382A1542E509437
:1015A000852182A3D0EADA95F1F783E2C82E81E0A3
:1015B000D82E80E090E0E60179906E01272D2295EB
:1015C0002F7030E0E90168A12D913C91119770E0F6
:1015D000D72DDF7002C075956795DA95E2F760FD4B
:1015E00008C0B701082E02C0660F771F0A94E2F701
:1015F00002C060E070E0262B372B11963C932E93AF
:1016000001968F309105B9F681A1D52DD823D1A3AC
:1016100082A1482B42A3129681E0F50120813181FD
:101620008216930609F480E0682AF1E0A337BF0729
:1016300009F09BCF262D45E06FE571E089E691E04A
:101640000E94360B0E94D804862DDF91CF911F9106
:101650000F91FF90EF90DF90CF90BF90AF909F9051
:101660008F907F906F905F9008950895FF920F93F1
:101670001F93CF93DF93F82E092F162FD72FC42F48
:10168000222349F081E0809375010E948621909386
:10169000740180937301809175018823D9F0809142
:1016A0007301909174010E949221069798F0EF2D9A
:1016B000F02FA12FBD2F80E090E04C2F50E0841739
:1016C000950734F4219131912D933D930196F7CFF5
:1016D00010927501DF91CF911F910F91FF900895A6
:1016E0008F929F92AF92BF92EF92FF920F931F93B0
:1016F000CF93DF934B015C0107E010E08CE1E82E13
:10170000F12CD1E0D501C4010E2C04C0B695A795EB
:10171000979587950A94D2F7C82FCF7069F4D111A5
:1017200016C080E00E9465050E94FB1480E00E94C4
:1017300065050E9419160BC08C2F0E9465050E943A
:10174000FB148C2F0E9465050E941916D0E00150F1
:10175000110984E0E81AF1080F3F8FEF180729F00C
:10176000043011057CF6D0E0CDCFDF91CF911F91F1
:101770000F91FF90EF90BF90AF909F908F90089542
:101780001F93CF93DF93811520EC9207B8F0EC0103
:10179000D05C80916302827211E009F410E00E9433
:1017A000871386958170181729F0CC0FCD2FCC1F89
:1017B000DD0BD195CE018F77992701C09058DF912D
:1017C000CF911F910895CF92DF92EF92FF9297FFF2
:1017D00052C0FB012281222309F44DC07C010E94EA
:1017E0005A0CC7010E94C00B880F991F880F991FC0
:1017F000FC01EE51FD4FC590D590E590F4900E940C
:10180000510CC114D104F1E1EF06F10440F4C1140C
:10181000D10491E0E906F10440F1823019F40E940C
:101820009B0C29C0811121C0E1E0EE1AF108D7011B
:10183000C60188279C7FAF70BB272AE0B695A79585
:10184000979587952A95D1F7BC01CD0178528F4F96
:101850009F4F0E94700BF3E0DF22EE24FF24C701AC
:10186000B60174528F4F9F4F02C0C701B6010E944C
:10187000700B0E94840C81E0FF90EF90DF90CF907E
:1018800008958CE090E00E94292E90E0A0E0B0E066
:1018900080935F0290936002A0936102B093620212
:1018A000089580915F02089560915F028CE090E05E
:1018B0000C943D2E0E941F1F809363020E94321FD2
:1018C00080915F02813071F048F0823081F0843085
:1018D000A1F486EE0E94811688E10DC082EE0E947E
:1018E000FB140BC088E193E00E94920406C082EED4
:1018F0000E94FB1487E50E9481168FE39CE9019703
:10190000F1F700C00000089580915F02813039F046
:1019100040F0823031F0843051F488E206C08CE22D
:1019200004C082EE0E94191602C00E9481168091A6
:1019300063020C942F1F80915F02813029F040F0E8
:10194000823031F0843039F489E20E94811603C07C
:1019500082EE0E941916809163020C942F1F0F9340
:101960001F93CF93DF93EC018B01FB0182818823CE
:1019700019F1C33EFCE5DF07C1F050F4C13EECE5D0
:10198000DE0781F0C23EFCE5DF07B1F481E010C064
:10199000C43E8CE5D80759F0C53EECE5DE0761F49E
:1019A00084E006C010925F0205C082E001C083E0BF
:1019B00080935F020E94540CB801CE01DF91CF9159
:1019C0001F910F910C94E30BCF92DF92EF92FF9255
:1019D0000F931F93CF93DF937B01282F382FE82F8E
:1019E000F0E0F11006C0EB5EFB4F6491762F862F7E
:1019F0007BC00F2D10E046E0649FC0011124CFEFA3
:101A0000D0E0BE010E94B22DAB016BEA6403C001BD
:101A1000659F900D11248E0D911D8E0D911D982F97
:101A2000990F890FBE01601B710B6E9FD0016F9FD4
:101A3000B00D7E9FB00D11249B2F8F9DB0011124FE
:101A4000672F77277E01E61AF70AEE9EB001EF9E18
:101A5000700DFE9E700D11246E01C81AD108C09E33
:101A60007001C19EF00CD09EF00C11240F2D112797
:101A7000C01BD10BCE9F8001CF9F100DDE9F100D9C
:101A80001124812F4230510591F04CF4411551053C
:101A9000E1F041305105B9F4822F272F16C04430B0
:101AA000510569F044F04630510579F00CC0822FA1
:101AB0002B2F912F0AC02B2F932F872F06C08B2FF0
:101AC000922F212F02C08B2F972FE22FF0E0EB5E99
:101AD000FB4F7491E82FF0E0EB5EFB4F6491E92F30
:101AE000F0E0EB5EFB4F8491DF91CF911F910F915E
:101AF000FF90EF90DF90CF9008950895CF93DF93FC
:101B0000762FE901682F842F0E94E40C7983688383
:101B10008A83DF91CF91089580916402282F2695C2
:101B200030E02115310519F48170826005C025323D
:101B3000310524F08170886480936402089588E000
:101B400090E00C94312ECF93DF9300D000D0CDB72E
:101B5000DEB7AB01BC0149835A836B837C830E944F
:101B60008C0D49815A816B817C8188E090E00F90D7
:101B70000F900F900F90DF91CF910C944F2EE4E6D1
:101B8000F2E083E0808311828FEF8283838314826B
:101B900060817181828193810C94A30D8091640294
:101BA00080FF02C08695089580E0089580916802C4
:101BB000833018F48F5F80936802609164027091A3
:101BC000650280916602909167020C94A30D80914A
:101BD0006802882319F08150809368026091640242
:101BE0007091650280916602909167020C94A30D3A
:101BF0006091040170E08091640280FF0AC08091CE
:101C00007A0123E0829FC001112487599D4F0C94D3
:101C1000D1128091790190910301891780F7E82F03
:101C2000F0E09F01220F331FE20FF31FE759FD4F32
:101C30001182108212828F5FF0CF9091640290FF28
:101C400016C09091790120910301921770F4E92F49
:101C5000F0E0DF01AA0FBB1FEA0FFB1FE759FD4FA2
:101C60008183608342839F5FF0CF0C94F80D0895C9
:101C7000CF93DF9300D01F92CDB7DEB7909164026F
:101C800090FF0AC09E012F5F3F4F0E947E0D4B8147
:101C900069818A810E941D0E0F900F900F90DF9135
:101CA000CF910895CF93DF93EC01EC81F0E0E05FFA
:101CB000FC4F4491E4E6F2E0628181810E94380E9B
:101CC0008C818F5F8C83DF91CF910895CF93DF93C9
:101CD000EC01E4E6F2E0438162818C810E94380EDF
:101CE0008C818F5F8C83DF91CF9108950F931F9329
:101CF000CF93DF9300D01F92CDB7DEB78C018091D8
:101D0000760181110AC09E012F5F3F4F4FEF6FEFA9
:101D10000E947E0D8A8180937601F8018481813052
:101D200051F028F0823061F4409176010AC0809130
:101D3000760140E007C06091760140E080E003C09A
:101D400040E080E060E00E941D0EF801248130E058
:101D5000C901019663E070E00E94C62D84830F9054
:101D60000F900F90DF91CF911F910F910895AF9237
:101D7000BF92CF92DF92EF92FF920F931F93CF9378
:101D8000DF9300D01F92CDB7DEB7182FF62E042FA9
:101D9000E22E9091640290FF6EC0E92FE695AE2F7F
:101DA000B0E0A95CBE4F8C91809382019E7F9230FF
:101DB00061F49E012F5F3F4F812F0E947E0D4B816A
:101DC00069818A810E941D0E44C0823019F40091FD
:101DD00067023FC0863019F4109165023AC089301D
:101DE000D9F38931B1F5E9518E2F8170D82EE6955E
:101DF000F0E0E05FFB4FA590B490C12CBB24609154
:101E00000201C61620F5EC2DF0E0EA9DC001EB9D25
:101E1000900DFA9D900D112470E00E94B22D812F3B
:101E2000D11002C0860F01C0861B90917901E90F85
:101E3000F11D9F01220F331FE20FF31F9F0127594E
:101E40003D4F402F6F2D0E947E0DC394D8CF0E942E
:101E5000F80D10936502F092660200936702EE207F
:101E600051F06091640270916502809166029091D8
:101E700067020E94A30D0F900F900F90DF91CF91FA
:101E80001F910F91FF90EF90DF90CF90BF90AF9098
:101E90000895E4E6F2E09181282F4381628188E091
:101EA000890F0C94B70E81E00C94490FE4E6F2E040
:101EB0009181282F4381628188EF890F0C94B70E9E
:101EC00081E00C94560FE4E6F2E0628128E0620FB4
:101ED00008F46FEF282F438181810C94B70E81E0C5
:101EE0000C94630FE4E6F2E0628128E0621B08F4E0
:101EF00060E0282F438181810C94B70E81E00C941F
:101F0000720FE4E6F2E0438128E0420F08F44FEF5D
:101F1000282F628181810C94B70E81E00C94810F8F
:101F2000E4E6F2E0438128E0421B08F440E0282F79
:101F3000628181810C94B70E81E00C94900F20E0B7
:101F40000C94B70EFF920F931F93CF93DF93EC0186
:101F5000F12C0FEF10E060910201F616E8F42091E9
:101F6000790130E02F0D311DC901880F991F280F0D
:101F7000391F27593D4F70E0C8010E94C62D962F8A
:101F80008C814091670260916602F99E800D112458
:101F90000E947E0DF394DFCF0E94F80D9A818C8110
:101FA00090FF02C08F5F01C081508C83DF91CF9181
:101FB0001F910F91FF900895BF92CF92DF92EF9201
:101FC000FF920F931F93CF93DF93FC01828180FFD9
:101FD00002C00FEF01C001E010E08091020118176C
:101FE000E0F5C12ED12C80917901E601C80FD11DF9
:101FF000CE01880F991FC80FD91FC759DD4F19820D
:1020000018821A8234E0E32EF12CB12C80917801F1
:102010008B0D87FF03C090910201890F082E000CE1
:10202000990BC816D90691F4809167028E9DA00184
:102030008F9D500D112455954795559547959E01B7
:1020400060916602809165020E947E0DB00EF1E003
:10205000EF1AF108D9F61F5FC0CF0E94F80D8091EA
:102060007801013031F4811102C080910201815068
:1020700007C090E001966091020170E00E94C62DB9
:1020800080937801DF91CF911F910F91FF90EF9096
:10209000DF90CF90BF900895CF9380917901909178
:1020A0000301891770F4E82FF0E09F01220F331F1E
:1020B000E20FF31FE759FD4F1182108212828F5FEA
:1020C000F0CFC0E060910201C617B8F5EC2FF0E048
:1020D00070E0CF010E94C62D40917901480F809198
:1020E0007701082E000C990B50E0E817F907C4F0AF
:1020F00020910101022E000C330B2E173F0784F0B4
:102100009A01220F331F240F351F27593D4F40914D
:10211000670260916602809165020E947E0D0BC08D
:10212000FA01EE0FFF1F4E0F5F1FFA01E759FD4F37
:10213000118210821282CF5FC5CF0E94F80D2091CC
:10214000000180917701820F8093770190910101C6
:10215000920F9093010119165CF4082E000C990B54
:102160004091020150E041505109841795071CF03D
:10217000219520930001CF9108950F931F93CF9342
:10218000DF938C01FC0184819581019681709927F0
:1021900095838483C0E0D5E580910201C817F8F4E7
:1021A0002091790130E02C0F311DC901880F991F52
:1021B000280F391F27593D4F4C2F4695F801848130
:1021C0009581840F911D8170409167026091660234
:1021D0008D9F802D11240E947E0DCF5FDDCFDF917A
:1021E000CF911F910F910C94F80D0F931F93CF93E4
:1021F000DF93EC0100E010E080910201282F30E035
:102200000217130724F5909179019801290F311DC8
:10221000A901440F551F240F351F27593D4F86959F
:1022200090E04C81081719071CF4442331F002C0D8
:10223000411103C04091670201C040E06091660215
:10224000809165020E947E0D0F5F1F4FD5CF0E94C7
:10225000F80D2C8130E02F5F3F4F217033272C8306
:10226000DF91CF911F910F910895E4E6F2E0808114
:102270008E7F808360817181828193810E94A30D12
:10228000109283012FEF80E792E021508040904030
:10229000E1F700C000000C94F80D609164026695AF
:1022A00070E04BE050E085E091E00E941C2E892B0D
:1022B00019F481E0809383010E94862190937C0130
:1022C00080937B0108959091640290FF35C09170D6
:1022D000811102C0926006C0853210F0986402C07D
:1022E000880F982B90936402662351F060916402EA
:1022F0007091650280916602909167020E94A30D21
:1023000060916402669570E04BE050E085E091E0FA
:102310000E941C2E892B19F01092830102C00E948A
:102320004D1181E080937E014091670260916602C9
:10233000809165020C949F0F0895682F909164021C
:10234000969581E0890F853208F081E00C94631145
:1023500081E00C949D11682F9091640296958FEF07
:10236000890F09F484E20C94631181E00C94AB11A1
:1023700061E00C946311E4E6F2E080818160808387
:1023800086950C94B8118091640280FD0C943511EF
:102390000C94BB1160E00C94631180918101811158
:1023A00033C0809130028160809330020E94D21F3E
:1023B000811104C00E946B200E94BF0D0E949F0DDE
:1023C0006093640270936502809366029093670243
:1023D0006E7F61F40E94BF0D0E949F0D60936402A6
:1023E0007093650280936602909367020E948C0D41
:1023F000109283018091640280FF03C086950E9441
:10240000CA1181E08093810108950F931F93CF93A8
:10241000DF9380918301882309F48CC0809182012D
:10242000E0916402E695E81BE0937D01823049F477
:10243000F0E0E45FFC4FE491CE2FD0E002E51EE037
:1024400049C0863049F4F0E0E75FFC4FE491CE2FBD
:10245000D0E006E61EE03EC0893051F4E695F0E09B
:10246000EA5FFC4FE491CE2FD0E002EA1FE032C0D9
:102470008F3051F4E695F0E0ED5FFC4FE491CE2F04
:10248000D0E00CED1FE026C0853149F4F0E0E050CB
:10249000FD4FE491CE2FD0E00CE410E11BC0883159
:1024A00081F0833239F4EEEFF2E0C591D49106E782
:1024B0001EE010C0843251F4C4EFD1E005EF10E10A
:1024C00009C0C8EED3E00DEB10E104C0C0EDD7E0C9
:1024D0000DE71DE080917E01882389F010927E0136
:1024E0000E9486219E0120953095820F931F909324
:1024F0007C0180937B011092800110927F0180917A
:102500007B0190917C010E9492218C179D0790F095
:10251000E0917B01F0917C01CE0FDF1FD0937C0115
:10252000C0937B018BE791E0F801DF91CF911F9180
:102530000F910994DF91CF911F910F9108952EB1C2
:10254000342F309523233EB1432B3FB7F894FC0141
:10255000680F791FE617F70789F0819198E04EB967
:10256000000000C087FF2EB9880F000000C000C027
:1025700000C02EB900C09A9591F7ECCF3FBF0895E7
:102580002DB1242B2DB99B01220F331F620F731F16
:102590000E949F1287EC90E00197F1F700C00000C5
:1025A000089544E00C94C0120F931F93CF93DF93D0
:1025B000C62FD42F022FFC0182818823C9F060939B
:1025C00086010E948621909385018093840180E298
:1025D0008C0F883008F050C0C77081E001C0880FB0
:1025E000CA95EAF7DF91CF911F910F910C94941641
:1025F00010918601161330C080918401909185015D
:102600000E949221883C910538F5C0E2CD0F1D173C
:10261000B9F080E2810F883040F4177081E001C08A
:10262000880F1A95EAF70E949B16C83048F481E09B
:102630009D2F977001C0880F9A95EAF70E94941613
:10264000802F0E948116C830B8F4D77081E001C095
:10265000880FDA95EAF70AC080E28C0F883060F4C0
:10266000C77081E001C0880FCA95EAF7DF91CF916A
:102670001F910F910C949B16DF91CF911F910F9199
:1026800008959C01CB01203F4CE53407F9F078F424
:10269000283DFCE53F07B9F0293D4CE5340711F131
:1026A000273D3C4531F526E241EE61EE1EC0223F5A
:1026B000FCE53F0799F070F0233F3C45D1F427E259
:1026C00045EE66EE12C027E245EE0EC026E241EE70
:1026D00060EE0BC027E245EE64EE07C026E241EE55
:1026E00062EE03C028E241E065EE0E94D41280E071
:1026F0000895FC018281882319F0109286010895C3
:1027000081E0089590938C0180938B010895E0916E
:102710008B01F0918C01309721F00190F081E02D38
:10272000099480E00895E0918B01F0918C0130973D
:1027300099F020912201222359F020919F0227FF36
:1027400007C0DC012C9111962C93119725E02C9356
:102750000280F381E02D09940895E0918B01F091BE
:102760008C01309739F022E0DC012C930480F58154
:10277000E02D099408952091890130918A018217F2
:10278000930771F090938A0180938901E0918B0106
:10279000F0918C01309721F00680F781E02D0994AB
:1027A000089520918701309188018217930771F075
:1027B0009093880180938701E0918B01F0918C01C7
:1027C000309721F00084F185E02D0994089585B7B4
:1027D000806885BF85B7806885BF0895089508958E
:1027E0000C94EF1308950C94F2130E94E7130E94C7
:1027F000EE130C94F01381E008950E947D210E9455
:10280000530A0E9452220E949C250E94CD110C94D2
:10281000F3134F925F927F928F929F92AF92BF92EB
:10282000CF92DF92EF92FF920F931F93CF93DF939C
:10283000CDB7DEB72A970FB6F894DEBF0FBECDBF77
:102840000E949E0A0E94FB13811111C08FEF8983A1
:102850008A831B820E9486218160782F9D838C83CE
:1028600049815A816B818D810E94C71457C09EE8AF
:10287000C92E91E0D92E00E010E0AA24A394B12C37
:10288000702E802F0E94490A4C01F6014190519010
:102890006F01482659264114510431F40F5F1F4F30
:1028A0000530110569F7D2CF8091300281FD0E9479
:1028B000520A20E030E07501022E02C0EE0CFF1C2F
:1028C0000A94E2F7C70184219521892B09F12E830F
:1028D0007F828E209F2091E0892809F490E09887DC
:1028E0000E9486218160782F9A8789874E815F8137
:1028F00068858A850E94C714000F111FF801E257EE
:10290000FE4F80819181E826F926F182E08206C09F
:102910002F5F3F4F2F30310571F6C0CF0E94F52455
:1029200010918D010E9487131817D9F00E94871308
:1029300080938D012A960FB6F894DEBF0FBECDBFEF
:10294000DF91CF911F910F91FF90EF90DF90CF908B
:10295000BF90AF909F908F907F905F904F900C941E
:1029600074052A960FB6F894DEBF0FBECDBFDF9177
:10297000CF911F910F91FF90EF90DF90CF90BF907C
:10298000AF909F908F907F905F904F900895CF93DE
:10299000DF93CDB7DEB72B970FB6F894DEBF0FBE2F
:1029A000CDBF4F83588769877A878B87DE01119661
:1029B00086E0FD0111928A95E9F785E0FE013796E0
:1029C00001900D928A95E1F749815A816B817C8152
:1029D0008D819E810E94141C2B960FB6F894DEBF49
:1029E0000FBECDBFDF91CF910895FC018081918111
:1029F0000E94E01E0895882309F41AC18238C1F4A8
:102A00000E94871381FD14C169E3809110019091A8
:102A100011010E94D2200E946E1F2FEF81EE94E0E0
:102A2000215080409040E1F700C0000069E319C0E8
:102A30008338F9F40E94871380FDFAC063E5809122
:102A40001001909111010E94D2200E946E1F2FEF61
:102A500081EE94E0215080409040E1F700C00000FA
:102A600063E580911001909111010E94DD200C948A
:102A70006E1F8438C1F40E94871382FDD9C067E4B9
:102A800080911001909111010E94D2200E946E1F2E
:102A90002FEF81EE94E0215080409040E1F700C09C
:102AA000000067E4DECF9CEF980F913A40F4682F66
:102AB00080911001909111010E94D220D8CF90E214
:102AC000980F983050F4877091E001C0990F8A9563
:102AD000EAF7892F0E94221FCACF9BE5980F9330F7
:102AE00070F4853A29F0863A31F083E890E005C029
:102AF00081E890E002C082E890E00C94BB1398E576
:102B0000980F973108F08EC0883A09F445C0893A89
:102B100009F445C08A3A09F445C08B3A09F445C026
:102B20008C3A09F445C08B3B09F445C08C3B09F451
:102B300045C08D3A09F445C0803B09F445C08E3A42
:102B400009F445C08F3A09F445C0813B09F445C0FA
:102B5000823B09F445C0833B09F445C0843B09F43A
:102B600045C0853B09F445C0863B09F445C0873B19
:102B700009F445C0883B09F445C0893B09F445C0C8
:102B80008D3B09F445C08E3B09F445C08A3B09F4EE
:102B900045C080E090E044C082EE90E041C089EE04
:102BA00090E03EC08AEE90E03BC085EB90E038C0FC
:102BB00086EB90E035C083EB90E032C084EB90E090
:102BC0002FC087EB90E02CC08CEC90E029C08DECFE
:102BD00090E026C083E891E023C08AE891E020C01D
:102BE00082E991E01DC084E991E01AC081E292E09F
:102BF00017C083E292E014C084E292E011C085E243
:102C000092E00EC086E292E00BC087E292E008C03C
:102C10008FE690E005C080E790E002C08AE292E093
:102C20000C94D113803F20F00E94FD230C94EA24E1
:102C30000895882309F464C0823879F40E948713C8
:102C400081FF5EC069E380911001909111010E94A3
:102C5000D2200E946E1F69E310C08338B1F40E9435
:102C6000871380FF4DC063E58091100190911101A1
:102C70000E94D2200E946E1F63E580911001909106
:102C800011010E94DD200C946E1F843879F40E949B
:102C9000871382FF35C067E4809110019091110184
:102CA0000E94D2200E946E1F67E4E7CF9CEF980F2E
:102CB000913A10F4682FE1CF90E2980F983050F4D9
:102CC000877091E001C0990F8A95EAF7892F0E94D9
:102CD000281FD9CF9BE5980F933020F480E090E037
:102CE0000C94BB1398E5980F973120F480E090E0A6
:102CF0000C94D113803F20F00E9465240C94EA24A8
:102D00000895CF93C82F0E94FB14C93349F42FEFC5
:102D100087EE93E0215080409040E1F700C0000032
:102D20008C2FCF910C941916882321F00E94221F1A
:102D30000C946E1F0895882321F00E94281F0C9484
:102D40006E1F0895BF92CF92DF92EF92FF920F9382
:102D50001F93CF93DF937C01062FC72FFC011581B2
:102D600012951F70D281D1110E94421F0E94181F1C
:102D7000882379F0DD2369F080E2800F883048F005
:102D800082E00E94B91F0E94181F91E0B82EB92658
:102D900001C0B12CCC2EC2948FE0C822D12CF601F8
:102DA000E859FF4F0C94FC2D8C2F807FCF70882327
:102DB00011F0C295C07FDD2399F0CC2309F4CFC177
:102DC00080E2800F883010F0011104C08C2F0E9427
:102DD000221F03C08C2F0E94351F0E946E1FBFC18F
:102DE000802F0E941916CC2309F402C280E2800FC2
:102DF000883010F0011104C08C2F0E94281F03C0DE
:102E00008C2F0E943B1F0E946E1FF2C18C2F807F6F
:102E1000CF70803211F0C295C07F002319F00130CD
:102E2000C9F022C0DD2371F0112341F0113031F4DB
:102E30000E94551F8C2B0E945B1FDAC10E94551FF8
:102E40008C2B1DC0112319F0113009F4D1C10E943F
:102E5000641F25C0DD2321F0163008F0C9C10EC063
:102E6000153008F0C5C11BC0DD2361F0112331F01E
:102E7000F701858180FF73C18F7085838C2F0E943D
:102E80009416B6C1112359F0093309F079C1FFEF47
:102E900027EE83E0F15020408040E1F76FC18C2F96
:102EA0000E949B16A5C18C2F86958695837090E015
:102EB000009719F0019761F09BC1DD2321F0802F6D
:102EC0009C2F937002C080E090E00E94BB139BC1D6
:102ED000DD2321F0802F9C2F937002C080E090E0D2
:102EE0000E94D11390C1DD23F9F0053F51F0063F58
:102EF00071F0043FA9F48091990290919A02816047
:102F00000BC08091990290919A02826005C08091D5
:102F1000990290919A02846090939A028093990208
:102F2000802F0E94FD231EC0053F51F0063F71F027
:102F3000043FA9F48091990290919A028E7F0BC070
:102F40008091990290919A028D7F05C0809199029B
:102F500090919A028B7F90939A0280939902802F8E
:102F60000E9465240E94EA244EC18C2F837009F0D0
:102F700049C0D11144C1402F429546954770440F36
:102F8000440F602F6F70862F90E0A0E0B0E0042E19
:102F900004C0880F991FAA1FBB1F0A94D2F704FF11
:102FA00010C00FE010E020E030E004C0000F111F5F
:102FB000221F331F4A95D2F7009510952095309522
:102FC00003C000E010E09801C695C695C370D0E03C
:102FD000BC01CD01602B712B822B932BC230D1050C
:102FE00059F0C330D10559F0219719F00E94591DAD
:102FF00006C10E94471D03C10E946B1D00C10E94B3
:10300000451DFDC0DD2319F08C2F817001C0869510
:10301000882309F4F4C0402F429546954770440F29
:10302000440F602F6F70862F90E0A0E0B0E0042E78
:1030300004C0880F991FAA1FBB1F0A94D2F704FF70
:1030400010C00FE010E020E030E004C0000F111FBE
:10305000221F331F4A95D2F7009510952095309581
:1030600003C000E010E09801C695C695C370D0E09B
:10307000BC01CD01602B712B822B932BC230D1056B
:1030800059F0C330D10559F0219719F00E941F1E45
:10309000B6C00E940D1EB3C00E94311EB0C00E9477
:1030A000801DADC0CF70DD2339F08C2F0E94A61D8E
:1030B000802F0E949416A3C0802F0E949B168C2FF5
:1030C0000E94C71D9CC0023F01F128F4003F41F05F
:1030D000013FA1F040C0033FF9F0043F39F13BC08C
:1030E000DD2341F0153008F083C08C2F8F710E94D2
:1030F000EC1D7EC0163008F07BC0F7CFDD2339F021
:103100008C2F8F710E94A61D73C0DD23C9F38C2FF5
:103110008F710E94C71D6CC0DD2329F08C2F8F7129
:103120000E94911D65C00E948C1D62C0DD2349F084
:10313000CF718C2F0E94A61D63E08C2F0E94A41FCC
:1031400057C081E00E94B91F123008F451C082E0DC
:103150000E94B91F4DC0DD2331F0112389F2802F69
:103160000E94FB1445C0112391F2093349F49FEFEB
:10317000E7EEF3E09150E040F040E1F700C00000DE
:10318000802F0E94191634C04C2F4F70602FC7013A
:103190000E9498070E94B81C36C0D11134C0CF706D
:1031A000D0E0C230D10599F03CF4209769F0219726
:1031B000F9F40E94E02527C0C430D10571F054F025
:1031C0002597B1F480E00AC00E94BD251CC00E9472
:1031D000272619C00E942E2616C085E00E94572679
:1031E00012C04C2F4F70602FC7010E949B070BC06D
:1031F00028E0C21AD10884E0C816D10420F40E9445
:1032000087130E947405BB20D1F00E94141F80FD1B
:1032100016C0F70112820E940E1F0E94A61DC70150
:103220000E9429190E940E1FDF91CF911F910F91CB
:10323000FF90EF90DF90CF90BF900C94C71DDF916F
:10324000CF911F910F91FF90EF90DF90CF90BF90A3
:1032500008950F931F93CF93DF93EC018881998199
:103260002B813C81232BB9F09F3F11F48F3F99F0C4
:10327000CE010E948605882371F0688179818A8158
:103280000E94EB1E8C010E94431E0E94441DB80147
:10329000CE010E94A216DF91CF911F910F91089548
:1032A0000E94421F0E94521F0E946E1F0E94902582
:1032B0000E94EA2480E090E00E94BB1380E090E04E
:1032C0000C94D11380911001909111010E94E8207B
:1032D0000C9450190E94321F0C946219E92FE29548
:1032E000EF70F0E03297EE30F105B0F4E858FF4FA0
:1032F0000C94FC2D803F91F018F4883E68F40EC0C9
:10330000843F51F40BC0883E48F0813F29F406C049
:1033100093FB882780F9089580E0089581E008955F
:103320000E94E01E0E946E190895CF93DF9300D093
:1033300000D01F92CDB7DEB70F900F900F900F9077
:103340000F90DF91CF910895CF93DF9300D000D0FD
:1033500000D0CDB7DEB726960FB6F894DEBF0FBE0D
:10336000CDBFDF91CF9108951F93CF93DF93C0918D
:10337000990116E080919A01C81799F0D0E01C9F3E
:10338000F0011D9FF00D1124E556FE4F4081518143
:1033900062817381848195810E94A4192196C770EE
:1033A000E9CFDF91CF911F9108954091CB015091CA
:1033B000CC016091CD017091CE018091CF019091AF
:1033C000D0010C94A4198091D00182958F7009F0DE
:1033D00054C08091CD01882309F44FC08091990198
:1033E000A0919A016091CB017091CC014091CE01E6
:1033F0005091CF01B6E08A1709F43FC090E0411523
:103400005105C1F17F3F11F46F3FA1F1B89FF00169
:10341000B99FF00D1124E556FE4F218172132AC089
:103420002081621327C02281211124C0238134818D
:103430002417350710F421503109241B350B283C83
:103440003105C0F42091D0012F7020612093D0016C
:1034500026E0289FF001299FF00D1124E056FE4F31
:1034600080818F70806180838BEC91E00E942919AC
:103470000C94B41901968770BECF0895CF92DF9255
:10348000EF92FF920F931F93CF93DF93CDB7DEB7E9
:1034900062970FB6F894DEBF0FBECDBF8C0185E0FA
:1034A000F801DE011D9601900D928A95E1F7D80191
:1034B0004C9111965C91119712966C9112971396FC
:1034C000CD90DC9014973091CB017091CC0180911C
:1034D000CE019091CF01009709F46BC17F3F19F4A1
:1034E0003F3F09F466C1E090CD01EE2009F4C0C071
:1034F0002091D001C816D90628F0F601E81BF90B77
:10350000CF0104C0809590958C0D9D1DFF24F394F0
:10351000883C910578F0F12C207F09F0C6C07C2D05
:10352000D98AC88A89890E9495198BEC91E00E94FA
:103530002919B1C0822F807F09F046C0751314C0CD
:10354000341312C0611110C02F7020612093D0017C
:103550000E94D5198BEC91E00E9429198091D0012D
:10356000D80115968C932EC0CD2819F15F3F11F428
:103570004F3FF9F0F62E61111CC080919901209106
:103580009A0136E0821709F45AC090E0389FF001A2
:10359000399FF00D1124E556FE4F7181571306C077
:1035A0007081471303C07281711103C00196877047
:1035B000E9CFF62E662309F427C18091D0018160FE
:1035C0008093D001F12C20C1751308C0341306C0BC
:1035D000611104C08091D001D801C3C04D875E87BE
:1035E0008D859E856A8B0E9490196A898823E1F1F6
:1035F0006623D1F12091D001822F82958F7090E0C7
:10360000029774F08091CB019091CC0198878F83C1
:103610001986DB86CA862C87CE0107960E94291957
:1036200086E0F801ABECB1E001900D928A95E1F7EC
:103630000E94E3190E94D519FF24F394E5C04D8739
:103640005E878D859E850E94E01E292F22952F7012
:1036500030E0223031050CF0CBC09F7009F0C5C0BE
:10366000805E883008F4D0C0C8010E942919E4CFD8
:10367000C816D90608F453C0F601E81BF90BCF01B0
:10368000883C910508F450C0F12C7C2DD98AC88A59
:1036900089890E949519EBECF1E086E0DF011D922B
:1036A0008A95E9F70E94D519AFC0751314C0341379
:1036B00012C0611110C08091D001F8018583C8014A
:1036C0000E94291986E0EBECF1E0DF011D928A955A
:1036D000E9F7FE2C99C04D875E878D859E856A8BA4
:1036E0000E9490196A89882309F4BECF662309F4E1
:1036F000BBCF2091D001822F82958F7090E00297EE
:103700000CF48ECF8091CB019091CC019A83898368
:103710001B82DD82CC822E83CE0101967FCF8095E5
:1037200090958C0D9D1DACCFF62E662309F49CCF91
:1037300075132EC034132CC02091D00120FD1FC062
:10374000822F82958F70D9F0D80115962C931597FA
:103750008F3049F08F5F982F9295907F822F8F70D6
:10376000892B15968C93C8010E94291986E0F801CF
:10377000ABECB1E001900D928A95E1F793CF86E032
:10378000F801ABECB1E001900D928A95E1F73CC0F5
:103790004D875E878D859E850E949019811140CF4F
:1037A0008091D00181608093D001C8010E942919C5
:1037B0002BC0662309F458CF4D875E878D859E8583
:1037C0000E949019F82E882309F44ECF86E0F80164
:1037D000ABECB1E001900D928A95E1F78BEC91E0B2
:1037E0000E94F5140E94E3195DCF811139CF0CC0FE
:1037F000243031050CF038CF9F7009F431CFF80137
:103800009581907F09F02CCF8F2D62960FB6F8949A
:10381000DEBF0FBECDBFDF91CF911F910F91FF9003
:10382000EF90DF90CF9008951F93CF93DF93CDB7A4
:10383000DEB72C970FB6F894DEBF0FBECDBF4F8317
:10384000588769877A878B879C87CE0107960E9465
:103850003E1A882369F08F8198852A853B85232B22
:10386000F1F19F3F09F063C08F3F09F060C037C09E
:1038700086E0FE013796DE01119601900D928A9541
:10388000E1F76F817885EA85FB85309741F17F3FCD
:1038900011F46F3F21F120919A0130E0C9010196A6
:1038A000877099274091990150E08417950709F492
:1038B00047C069837A83FD83EC8396E0929FD001B1
:1038C000939FB00D1124A556BE4FFE013196019075
:1038D0000D929A95E1F780939A010E94B41916E02F
:1038E0008091990190919A018917C1F1189FC001A7
:1038F000112485569E4F0E943E1A882379F1E0914B
:1039000099011E9FF0011124E556FE4F408151811F
:1039100062817381848195810E94A41980919901AB
:1039200090E001968770992780939901D9CF4F81B4
:10393000588569857A858B859C850E94A419CFCF8F
:103940000E946A1910929A0110929901EBECF1E031
:1039500086E0DF011D928A95E9F7C1CF2C960FB65C
:10396000F894DEBF0FBECDBFDF91CF911F910895B8
:10397000EF92FF920F931F93CF93DF938C01892BCC
:1039800009F46CC0F12CEE24E394E8012196F801CF
:103990008491843740F4843008F051C0813081F044
:1039A000823019F15BC0853709F444C0A8F19CE767
:1039B000980F903708F052C08F770E94191641C0B7
:1039C0000E5F1F4FFE01C49180E28C0F883048F4D7
:1039D000C7708E2D01C0880FCA95EAF70E94451F57
:1039E00014C08C2F0E94FB142DC00E5F1F4FFE01D0
:1039F000C49180E28C0F883058F4C7708E2D01C0BE
:103A0000880FCA95EAF70E944B1F0E946E1F1AC0CA
:103A10008C2F0E94191616C00E5F1F4FFE01C49115
:103A2000CC2381F08FE99FE00197F1F700C00000FF
:103A3000C150F6CF0E5F1F4FFE01F49003C00E94ED
:103A4000FB148E018F2D882309F49FCFEFE9FFE04F
:103A50003197F1F700C000008150F5CFDF91CF9191
:103A60001F910F91FF90EF90089508950C94351DCC
:103A70000E94361D6093070270930802809309022A
:103A800090930A020C94501908950C94381D0F93CA
:103A90001F930091070210910802209109023091B2
:103AA0000A02602B712B822B932B1F910F910C9488
:103AB000381D0F931F930091070210910802209167
:103AC000090230910A0260237123822393231F91FC
:103AD0000F910C94381D0F931F93009107021091C2
:103AE00008022091090230910A026027712782277B
:103AF00093271F910F910C94381D08950C947D1DF0
:103B00000E947E1D6093030270930402809305025D
:103B1000909306020C94501960E070E0CB010C9475
:103B2000801D0F931F9341E050E060E070E08A0138
:103B30009B0104C0000F111F221F331F8A95D2F76B
:103B4000C901B8011F910F910C94801D0F931F9311
:103B500041E050E060E070E004C0440F551F661F74
:103B6000771F8A95D2F78091030290910402A09169
:103B70000502B09106028A019B01082B192B2A2B02
:103B80003B2BC901B8011F910F910C94801D0F931D
:103B90001F9341E050E060E070E004C0440F551F07
:103BA000661F771F8A95D2F740955095609570955E
:103BB0008091030290910402A0910502B091060247
:103BC0008A019B01082319232A233B23C901B80139
:103BD0001F910F910C94801D0F931F9341E050E0B3
:103BE00060E070E004C0440F551F661F771F8A9580
:103BF000D2F78091030290910402A0910502B09146
:103C000006028A019B01082719272A273B27C90199
:103C1000B8011F910F910C94801D0F931F93009179
:103C20000302109104022091050230910602602BDC
:103C3000712B822B932B1F910F910C94801D0F934E
:103C40001F9300910302109104022091050230910C
:103C5000060260237123822393231F910F910C94FA
:103C6000801D0F931F930091030210910402209175
:103C700005023091060260277127822793271F9142
:103C80000F910C94801D08952FE0929F800D1124B8
:103C9000A82FA695A695A695877051E001C0550F4F
:103CA0008A95EAF785E0A89FD001112420E030E052
:103CB00070E0F901EA0FFB1FEF52FE4F4081CB018C
:103CC000022E02C0969587950A94E2F78170992793
:103CD000819584278523842780832F5F3F4F25305C
:103CE000310539F708952FE0929F800D1124682F38
:103CF000669566956695982F977085E0689FB001E8
:103D0000112440E050E080E0FA01E60FF71FEF5287
:103D1000FE4F208130E0092E02C0369527950A9487
:103D2000E2F721703327042E01C0220F0A94EAF72C
:103D3000822B4F5F5F4F4530510531F70895BF9299
:103D4000CF92DF92EF92FF920F931F93CF93DF9367
:103D50008C01C0900702D0900802E0900902F09018
:103D60000A028091030290910402A0910502B09191
:103D70000602C82AD92AEA2AFB2ACFE1D0E0D701D5
:103D8000C6010C2E04C0B695A795979587950A9401
:103D9000D2F780FF07C0BC2EB8018C2F0E94B60757
:103DA000019719F4219758F7B12C8B2DDF91CF9102
:103DB0001F910F91FF90EF90DF90CF90BF900895EB
:103DC000CF93DF93EC010E949F1EBE010E94B607B5
:103DD000DF91CF9108951F93CF93DF93EB019091E3
:103DE0009801992321F0CB010E94E01E13C0882383
:103DF00049F0CB010E949F1E182F682FCE010E9410
:103E0000441E04C0CB010E94731E182FBE01812FD7
:103E10000E94B607DF91CF911F91089580910B0208
:103E2000859585958595089580910B0287700895F5
:103E300090910B02977081E009F480E008958091E1
:103E40002F02089590912F02892B80932F020895BD
:103E5000809590912F02892380932F02089580935B
:103E60002F02089510922F02089590912E02892B0F
:103E700080932E020895809590912E02892380933D
:103E80002E02089510922E02089590912D02892BF2
:103E900080932D020895809590912D02892380931F
:103EA0002D02089510922D02089580910C0208951C
:103EB00008950C94581F90910C02981721F080934C
:103EC0000C020C94591F089580910C02882329F04C
:103ED00010920C0280E00C94591F0895E09110019B
:103EE000F091110180912F028083E0911001F091F7
:103EF0001101908180912E02892B8083E091100125
:103F0000F0911101908180912D02892B8083809105
:103F10000C02882381F0E0911001F0911101908151
:103F2000892B808380911001909111010E946D2056
:103F300081110E94641F80911001909111010C94D5
:103F4000931308950C94A11F98E0899F9001112468
:103F5000262B20930B020E94A61D80910B028595B3
:103F6000859585950C94A21F10920B0280E00C940D
:103F7000A21F20910B028095822380930B02982F21
:103F8000977079F430E0482F082E000C550B241759
:103F9000350739F08595859585950E94C71D0C9448
:103FA000B41F089580E090E00E94372E21E08D3EFE
:103FB0009E4F09F020E0822F089582E090E00C945B
:103FC000292E682F82E090E00C943D2E83E090E053
:103FD0000C94292E682F83E090E00C943D2E84E011
:103FE00090E00C94292E682F84E090E00C943D2EF4
:103FF00086E090E00C94292E682F86E090E00C94E7
:104000003D2EAB01BC018FE090E00C944F2EAB0134
:10401000BC0183E190E00C944F2E60E070E0CB0196
:104020000C94072060E070E0CB010E9401200C940A
:104030000D206DEE7EEF80E090E00E945B2E60E050
:1040400082E090E00E943D2E60E083E090E00E94DC
:104050003D2E10920702109208021092090210924F
:104060000A0260E084E090E00E943D2E60E085E07E
:1040700090E00E943D2E60E086E090E00E943D2EA0
:104080006FEF87E090E00E943D2E40E050E0BA01E3
:1040900088E090E00E944F2E60E08DE090E00E946A
:1040A0003D2E40E050E0BA0188E190E00E944F2EA2
:1040B00060E087E190E00E943D2E40E050E0BA01D0
:1040C0008CE190E00E944F2E60E080E290E00E9440
:1040D0003D2E0C9412200C941920FC0132968091F4
:1040E0002201882331F080919F0287FF02C09EE168
:1040F00001C096E080E0915028F021912223D9F36D
:104100008F5FF9CF08959C01FC0132969FEF80E00C
:104110004191461789F09F3F19F4411101C0982F32
:104120008F5F8630A9F79F3F39F0F901E90FF11D44
:1041300097FDFA95628308950895FC0132960896DA
:104140002081261301C010823196E817F907C1F7C4
:104150000895262F2695269526952E3168F4FC0184
:10416000E20FF11D677021E030E001C0220F6A9577
:10417000EAF78281282B22830895262F26952695FB
:1041800026952E3170F4FC01E20FF11D677021E0DD
:1041900030E001C0220F6A95EAF72095828128233A
:1041A0002283089520912201222329F020919F0249
:1041B00027FD0C94A9200C94832020912201222316
:1041C00029F020919F0227FD0C94BD200C949D2086
:1041D00020912201FC013296222331F080919F022E
:1041E00087FF02C08EE101C086E0DF011D928A9543
:1041F000E9F7089508950C94FA200E94FB2080911D
:10420000A602843061F11092310220E488E190E04E
:104210000FB6F894A895809360000FBE20936000BD
:1042200080E00E94EB0480E00E9474050E94FB2065
:1042300083B7817F846083BF83B7816083BF7894B5
:10424000889583B78E7F83BF0FB6F894A895809129
:104250006000886180936000109260000FBE089536
:1042600008950895CF930E9430210E949E0A0E94D3
:104270003121C0E08C2F0E94490A892B29F4CF5F9D
:10428000C530C1F780E001C081E0CF910895089565
:104290000C9447210E946A190E949C250E94871352
:1042A0000E9474050C9448211F920F920FB60F9232
:1042B00011248F939F93AF93BF938091310281110B
:1042C00013C080919B0290919C02A0919D02B0919D
:1042D0009E024196A11DB11D80939B0290939C026A
:1042E000A0939D02B0939E02BF91AF919F918F9139
:1042F0000F900FBE0F901F90189582E084BD93E041
:1043000095BD9AEF97BD80936E0008952FB7F894EE
:1043100080919B0290919C02A0919D02B0919E027F
:104320002FBF0895CF92DF92EF92FF920F931F93CA
:104330002FB7F89440919B0250919C0260919D028E
:1043400070919E022FBF6A017B01EE24FF248C0135
:1043500020E030E0C016D106E206F30610F441502A
:1043600051099A01281B390BC9011F910F91FF9028
:10437000EF90DF90CF90089578941F920F920FB630
:104380000F9211248F939F93AF93BF9380919B02C1
:1043900090919C02A0919D02B0919E020196A11D58
:1043A000B11D80939B0290939C02A0939D02B093B9
:1043B0009E02BF91AF919F918F910F900FBE0F9072
:1043C0001F90189581E08093E00080E28093D800F0
:1043D0001092C9008FE19EE40197F1F700C0000040
:1043E00087E090EBDC018093AF029093B002A09342
:1043F000B102B093B2029CE088E10FB6F894A895A0
:10440000809360000FBE90936000FFCFAF92BF9289
:10441000CF92DF92EF92FF920F931F93CF93C0E062
:10442000CC24C394D12CE82EF12C8C2F0E94490A65
:104430005C0100E010E09601002E02C0220F331F45
:104440000A94E2F72A213B21232B31F40F5F1F4FFF
:104450000F30110581F70AC0602F7C2F80E00E9489
:104460009C07E816F90691F781E004C0CF5FC530DC
:10447000E1F680E0CF911F910F91FF90EF90DF90D8
:10448000CF90BF90AF900895CF93C82F8CE20E9439
:104490000622882321F08C2FCF910C94062280E0F5
:1044A000CF910895CF930E94D21F811102C00E9424
:1044B0006B20C5E6C15049F00E949E0A8FE39CE93B
:1044C0000197F1F700C00000F5CF89E20E94442275
:1044D00081110FC18AE20E94442281110E946B2047
:1044E00085E00E94442281110E94E2210E94DD1F8A
:1044F0008093300287E00E9444228823A9F18BE157
:104500000E944422882351F08091300281FB2227AF
:1045100020F991E0922790FB81F90EC08EE00E9475
:104520004422882361F08091300282FB222720F907
:1045300091E0922790FB82F98093300215C080E1D0
:104540000E94442290913002882341F093FB22275D
:1045500020F981E0822780FB93F904C0892F8095A0
:1045600080FB90F990933002809130020E94E11F0D
:104570000E94EF1F90E09093A00280939F0280EE34
:104580000E944422882341F080919F02982F9095A9
:1045900090FB80F980939F0289E30E944422882344
:1045A00059F080919F0281FB222720F991E0922708
:1045B00090FB81F980939F0282EE0E94442288231F
:1045C00059F080919F0282FB222720F991E09227E7
:1045D00090FB82F980939F0286EE0E9444228823FA
:1045E00059F080919F0283FB222720F991E09227C6
:1045F00090FB83F980939F0283EE0E9444228823DC
:1046000059F080919F0284FB222720F991E09227A4
:1046100090FB84F980939F0285E30E9444228823C3
:1046200059F080919F0285FB222720F991E0922783
:1046300090FB85F980939F0281E30E9444228823A6
:1046400059F080919F0286FB222720F991E0922762
:1046500090FB86F980939F0281E10E944422882387
:1046600059F080919F0287FB222720F991E0922741
:1046700090FB87F980939F0280919F020E94F31F15
:1046800087E20E944422C82F8EE10E9444228111B9
:10469000C2608FE10E9444228111C46080E20E94C6
:1046A00044228111C86081E20E9444228111C061CC
:1046B00082E20E9444228111C06283E20E9444226D
:1046C0008111C06484E20E944422882311F0C068F2
:1046D00002C0CC2329F08C2F0E94EA1F6C2F03C04C
:1046E0000E94E61F682F70E080E090E0CF910C946C
:1046F000451DCF9108958091350280FF0BC06091D8
:10470000150185E0689FB001112475956795759531
:1047100067952BC081FF09C06091150185E0689FF6
:10472000B00111247595679520C082FF07C0609184
:10473000150185E0689FB001112417C090913402E3
:104740009923D1F060911401961788F720911501F3
:1047500085E0289F90011124929FA001939F500D06
:10476000112470E0CA010E94C62D6038710540F422
:104770006115710539F002C065E070E0862F08957B
:104780008FE7089581E008958091350280FF08C089
:104790006091130170E0759567957595679521C0D7
:1047A00081FF06C06091130170E07595679519C08F
:1047B00082FF04C06091130170E010C09091340238
:1047C0009923C1F0609112019617A0F7809113010F
:1047D000899FC001112470E00E94C62D60387105C8
:1047E00028F46115710521F0862F08958FE708954B
:1047F00081E0089561E070E0F4CF803F21F40E94F1
:104800007B23819504C0813F29F40E947B23809300
:1048100039020895823F21F40E947B23819504C0D0
:10482000833F29F40E947B23809338020895893FB7
:1048300019F40E94C42305C08A3F31F40E94C423A6
:10484000819580933A0208958B3F21F40E94C423FE
:10485000819504C08C3F29F40E94C42380933B02BD
:104860000895843F21F480913702816017C0853F0D
:1048700021F480913702826011C0863F21F480913B
:10488000370284600BC0873F21F480913702886033
:1048900005C0883F31F480913702806180933702F0
:1048A00008958D3F21F48091350281600BC08E3FC9
:1048B00021F480913502826005C08F3F29F48091F8
:1048C00035028460809335020895803F39F48091E9
:1048D000390287FF6CC01092390269C0813F29F408
:1048E000809139021816BCF362C090913802823F61
:1048F00029F497FF5CC01092380259C0833F19F425
:104900001916CCF354C0893F41F480913A0218162D
:104910000CF04DC010923A024AC08A3F29F48091AF
:104920003A0287FF44C0F6CF8B3F39F480913B02B7
:1049300087FF3DC010923B023AC08C3F29F4809122
:104940003B021816BCF333C0843F21F48091370238
:104950008E7F17C0853F21F4809137028D7F11C073
:10496000863F21F4809137028B7F0BC0873F21F473
:1049700080913702877F05C0883F31F480913702EC
:104980008F7E8093370213C08D3F21F480913502D2
:104990008E7F0BC08E3F21F4809135028D7F05C044
:1049A0008F3F29F4809135028B7F8093350280916F
:1049B000380281110EC08091390281110AC08091A4
:1049C0003A02811106C080913B02811102C010920F
:1049D0003402089586E392E00E94AD130E9486217E
:1049E000909333028093320208951F93CF93DF9305
:1049F00080913202909133020E949221AC019091F9
:104A00003402992321F02091160130E006C0209154
:104A100017018AE0289F900111244217530708F4D8
:104A20007BC080913802C0913902D0913A02109136
:104A30003B02811107C0C1116BC0D11169C01111B6
:104A400067C06AC09F3F19F09F5F909334021816A9
:104A500024F40E947B23809338028091380287FFE0
:104A600005C00E947B238195809338021C1624F494
:104A70000E947B23809339028091390287FF05C011
:104A80000E947B2381958093390230913802332331
:104A9000E1F0209139022223C1F045EB3403C0013B
:104AA0001124892F990F990B009709F481E08093C5
:104AB000380235EB2303C0011124892F990F990B7C
:104AC000009709F481E0809339021D1624F40E94B6
:104AD000C42380933A0280913A0287FF05C00E9466
:104AE000C423819580933A02111624F40E94C423B2
:104AF00080933B0280913B0287FF05C00E94C42344
:104B0000819580933B02DF91CF911F910C94EA2411
:104B10009F3F09F099CFA1CFDF91CF911F910895C9
:104B2000E6E3F2E086E0DF011D928A95E9F7109254
:104B300034021092350208950E94D21F811102C0E2
:104B40000E946B200E94F81F8093A102282F2695B7
:104B50002695269530E02630310524F0877088624E
:104B60008093A1028091A10280FF04C08695869562
:104B7000869501C080E00C94EB042091A102822F65
:104B8000869586958695482F50E04530510554F41A
:104B90008F5F982F990F990F990F822F8770892B0C
:104BA0008093A1028091A10281608093A1020E9462
:104BB000FC1F8091A1028695869586950C94EB0446
:104BC0008091A102982F969596959695A1F0915E69
:104BD000990F990F990F8770892B8093A102887F75
:104BE00091E009F490E08091A10290FB80F980931C
:104BF000A1020E94FC1F8091A10286958695869550
:104C00000C94EB048091A10280FD13C0816080931D
:104C1000A102813019F489E08093A1028091A10260
:104C20000E94FC1F8091A1028695869586950C9422
:104C3000EB0408958091A10280FF08C08E7F8093CD
:104C4000A1020E94FC1F80E00C94EB040895809167
:104C5000A10280FD0C941A260C9402269091A102C8
:104C6000892F8695869586958F5F8F719770863090
:104C700038F4880F880F880F892B8093A10202C017
:104C80009093A1028091A102887F91E009F490E0C5
:104C90008091A10290FB80F98093A1020E94FC1FE9
:104CA0008091A1028695869586950C94EB048630BA
:104CB00008F085E0880F880F880F9091A102977007
:104CC000892B8093A102887F91E009F490E0809184
:104CD000A10290FB80F98093A1020E94FC1F8091A9
:104CE000A1028695869586950C94EB0480915C02D2
:104CF00008950F931F93CF93DF9300D01F92CDB7EA
:104D0000DEB78C010E94E928823011F0843021F551
:104D100084E089831B830A8382E08093E9008FEF1C
:104D20009091E800815095FD06C095ED9A95F1F7B8
:104D300000008111F5CF8091E80085FF0DC040E0B3
:104D400050E063E070E0CE0101960E940629809158
:104D5000E8008E778093E8000F900F900F90DF911E
:104D6000CF911F910F910895CF93DF9300D01F92A1
:104D7000CDB7DEB72091A602243031F523E0298398
:104D8000805891099B838A8382E08093E9008FEFAA
:104D90009091E800815095FD06C095ED9A95F1F748
:104DA00000008111F5CF8091E80085FF0DC040E043
:104DB00050E063E070E0CE0101960E9406298091E8
:104DC000E8008E778093E8000F900F900F90DF91AE
:104DD000CF910895CF93DF93EC010E94E9288230B0
:104DE00011F08430F9F482E08093E9009FEF809124
:104DF000E800915085FD06C085ED8A95F1F7000029
:104E00009111F5CF8091E80085FF0CC040E050E0A3
:104E100066E070E0CE010E9406298091E8008E775E
:104E20008093E800DF91CF910895CF93DF93EC0159
:104E30000E94E928823011F08430D9F58091220156
:104E4000882339F080919F0287FF03C060E282E0EF
:104E500002C068E081E08093E9008FEF9091E80064
:104E6000815095FD06C095ED9A95F1F700008111EE
:104E7000F5CF8091E80085FF1CC08091220181114F
:104E800005C040E050E068E070E003C070E040E042
:104E900050E0CE010E9406298091E8008E77809331
:104EA000E80080E2FE01ACE3B2E001900D928A9549
:104EB000E1F7DF91CF9108958091A502811109C09A
:104EC0000E949B2A0E94F82A8091E20084608093CD
:104ED000E20008951092A5020895089508950C9493
:104EE0004A2142E061EC81E00E94152A42E261EC35
:104EF00082E00C94152A8091A802833009F460C0E6
:104F000030F4813071F0823009F499C008958A300C
:104F100009F485C08B3009F46BC0893009F0A7C053
:104F200020C08091A702813A09F0A1C08091E800D9
:104F3000877F8093E8008091AB029091AC02892B2F
:104F400021F460E28CE392E003C060E080E090E056
:104F500070E00E9451298091E8008B778093E800EF
:104F600008958091A702813209F081C08091AB023F
:104F70009091AC02029708F07AC08091E800877F98
:104F80008093E8008091E80082FD05C08091A60230
:104F90008111F8CF6CC02091F3008091F20090E075
:104FA000922B029729F48091F1008B7F813021F4BC
:104FB0008091F10080935C028091E8008B7753C070
:104FC0008091A702813A09F052C08091AB02909182
:104FD000AC02892B09F04BC08091E800877F809359
:104FE000E8008091E80080FFFCCF8091220136C06C
:104FF0008091A7028132D9F58091AB029091AC02E9
:10500000892BA9F58091E800877F8093E8000E94B2
:105010004A2A8091A902809322010C946A198091F6
:10502000A702813221F58091E800877F8093E80014
:105030000E944A2A8091AA0280935D02089580917D
:10504000A702813AA1F48091E800877F8093E8006D
:105050008091E80080FFFCCF80915D028093F10099
:105060008091E8008E778093E8000C944A2A089596
:1050700084B7877F84BF0FB6F894A89580916000AD
:10508000886180936000109260000FBE80E880937A
:105090006100109261000E94F5130E949B2A0E94F9
:1050A000F82A8091E20084608093E20078940E9464
:1050B000872D0E94FD1388E191E00E948213809168
:1050C000A602853069F40E94FD208091A402882305
:1050D000B1F30E943221882391F30E94F028EFCF90
:1050E0000E9409140E940512EACF0C947728292FF8
:1050F000332723303105C9F064F42130310581F0C4
:105100002230310509F04CC08BE390E02DE335E00F
:105110004BC02132310521F12232310589F140C0E5
:1051200082E190E028E735E03FC099278130910582
:1051300071F02CF4892BA1F5E9E3F5E00DC0823084
:10514000910541F0039761F5E5E1F5E005C0E7E27F
:10515000F5E002C0EBE1F5E0849190E09F0124C00E
:105160006115710541F061307105D1F489E090E07D
:1051700028E635E019C089E090E02FE435E014C05E
:105180006115710541F06130710551F480EC90E0DA
:105190002AE835E009C080E490E02AE436E004C063
:1051A00080E090E020E030E0FA0131832083089530
:1051B0000895CF93C82F0E94D828C0935E02CF9144
:1051C00008958091A602843011F081E0089582E074
:1051D000089580915E02811102C00C94E128089527
:1051E00080E189BD82E189BD09B400FEFDCF8091D7
:1051F000D8008F7D8093D8008091E00082608093FA
:10520000E0008091E00081FDFCCF0895CF92DF9215
:10521000EF92FF920F931F93CF93DF93EC018B01DB
:105220006A010E94692A811133C0C114D10439F086
:10523000F60180819181081B190BC80FD91FE12C41
:10524000F12C0115110519F18091E80085FD16C0BA
:105250008091E8008E778093E800C114D10449F072
:10526000F60180819181E80EF91EF182E08285E0ED
:105270000FC00E94692A882321F30AC08991809374
:10528000F10001501109FFEFEF1AFF0ADACF80E0B9
:10529000DF91CF911F910F91FF90EF90DF90CF9012
:1052A00008952091AD023091AE022617370748F0DD
:1052B0006115710539F42091E8002E772093E800FC
:1052C00001C0B90140E061157105A9F12091A60264
:1052D000222309F443C0253009F442C02091E8009C
:1052E00023FD40C02091E80022FD32C02091E8005B
:1052F00020FFE9CF4091F3002091F20030E0342B01
:10530000FC01CF016115710559F02830310540F4D9
:1053100081918093F100615071092F5F3F4FF1CF70
:1053200041E02830310509F040E02091E8002E7777
:105330002093E800C8CF4111C9CF0AC08091A602CE
:10534000882361F0853061F08091E80083FD0AC018
:105350008091E80082FFF2CF80E0089582E0089516
:1053600083E0089581E008952091AD023091AE026E
:105370002617370748F06115710539F42091E800C8
:105380002E772093E80001C0B901FC0120E06115EF
:10539000710591F18091A602882309F440C08530FF
:1053A00009F43FC08091E80083FD3DC08091E80092
:1053B00082FD2FC08091E80080FFE9CF2091F300AB
:1053C0008091F20090E0922B6115710559F08830C0
:1053D000910540F424912093F100319661507109B8
:1053E0000196F2CF21E0089709F020E08091E800D3
:1053F0008E778093E800CBCF2111CCCF0AC080916B
:10540000A602882361F0853061F08091E80083FD79
:105410000AC08091E80082FFF2CF80E0089582E028
:10542000089583E0089581E00895982F973058F506
:105430009093E900981739F07091EC002091ED00FD
:105440005091F00003C0242F762F50E021FF19C0A7
:105450003091EB003E7F3093EB003091ED003D7FCB
:105460003093ED003091EB0031603093EB0070939E
:10547000EC002093ED005093F0002091EE0027FF08
:1054800007C09F5FD3CF8F708093E90081E00895BC
:1054900080E008958091A70287FF11C08091E80005
:1054A00082FD05C08091A6028111F8CF11C08091C4
:1054B000E8008B770BC08091A602882349F0809189
:1054C000E80080FFF8CF8091E8008E778093E800B5
:1054D00008952091E4003091E50095E64091EC00BC
:1054E000842F817040FF22C08091E80080FD1CC0A5
:1054F0008091A602882391F0853091F08091EB0095
:1055000085FD10C04091E4005091E500421753071B
:1055100029F39A01915011F784E0089582E00895EB
:1055200083E0089581E0089580E008954091E800C7
:1055300042FFDECF08950E94092B0E94112BE0EE5E
:10554000F0E0808181608083E8EDF0E080818F77FA
:10555000808319BCA7EDB0E08C918E7F8C93808105
:105560008F7E80831092A50208950F931F93CF938F
:10557000DF930E94092B0E94112BC8EDD0E0888197
:105580008F77888388818068888388818F7D8883EE
:1055900019BC1092A6021092A2021092A4021092BC
:1055A000A30200EE10E0F80180818B7F8083888168
:1055B0008160888342E060E080E00E94152AE1EE8D
:1055C000F0E080818E7F8083E2EEF0E08081816078
:1055D0008083808188608083F80180818E7F8083D2
:1055E000888180618883DF91CF911F910F91089509
:1055F000E8EDF0E080818F7E8083E7EDF0E0808150
:105600008160808384E082BF81E08093A5020C9456
:10561000B52AE8EDF0E080818E7F80831092E20071
:1056200008951092DA001092E10008951F920F92EF
:105630000FB60F9211242F933F934F935F936F9365
:105640007F938F939F93AF93BF93EF93FF9380913B
:10565000E10082FF0BC08091E20082FF07C08091D1
:10566000E1008B7F8093E1000E94862D8091DA001B
:1056700080FF1FC08091D80080FF1BC08091DA009E
:105680008E7F8093DA008091D90080FF0DC080E189
:1056900089BD82E189BD09B400FEFDCF81E0809320
:1056A000A6020E945C2705C019BC1092A6020E94A7
:1056B0006A278091E10080FF19C08091E20080FF9D
:1056C00015C08091E2008E7F8093E2008091E2001D
:1056D00080618093E2008091D80080628093D8003E
:1056E00019BC85E08093A6020E946E278091E1009C
:1056F00084FF30C08091E20084FF2CC080E189BD2E
:1057000082E189BD09B400FEFDCF8091D8008F7D74
:105710008093D8008091E1008F7E8093E10080919A
:10572000E2008F7E8093E2008091E20081608093AE
:10573000E2008091A202882311F084E007C08091EA
:10574000E30087FD02C081E001C083E08093A602F0
:105750000E946F278091E10083FF29C08091E200C1
:1057600083FF25C08091E100877F8093E10082E084
:105770008093A6021092A2028091E1008E7F809316
:10578000E1008091E2008E7F8093E2008091E20050
:1057900080618093E20042E060E080E00E94152A90
:1057A0008091F00088608093F0000E946D27FF9147
:1057B000EF91BF91AF919F918F917F916F915F9189
:1057C0004F913F912F910F900FBE0F901F90189502
:1057D0001F920F920FB60F9211242F933F934F9366
:1057E0005F936F937F938F939F93AF93BF93CF9369
:1057F000DF93EF93FF93C091E900CF708091EC00AD
:10580000D82FD17080FDD0E81092E9008091F0008F
:10581000877F8093F00078940E942C2C1092E900EE
:105820008091F00088608093F000CD2BCF70C09302
:10583000E900FF91EF91DF91CF91BF91AF919F91DF
:105840008F917F916F915F914F913F912F910F9029
:105850000FBE0F901F9018951F93CF93DF93CDB776
:10586000DEB7AA970FB6F894DEBF0FBECDBFE7EA4A
:10587000F2E088E08E0F9091F10091938E13FBCFB0
:105880000E947B278091E80083FF28C18091A702B6
:105890009091A802492F50E04A30510508F01EC1EE
:1058A000FA01EA57FF4F0C94FC2D803821F0823822
:1058B00009F014C108C08091A3029091A402992319
:1058C00089F082600FC08091AB028F70873008F042
:1058D00005C18093E9008091EB0085FB882780F962
:1058E0001092E9009091E800977F9093E8008093F0
:1058F000F1001092F100D0C0282F2D7F09F0EEC0EA
:10590000882319F0823061F0E9C08091A9028130CA
:1059100009F0E4C0933009F080E08093A4022EC027
:105920008091A90281112AC08091AB028F702FEF64
:10593000280F263008F0D2C08093E9002091EB00B8
:1059400020FF1CC0933021F48091EB00806214C0D2
:105950009091EB0090619093EB0021E030E0A90181
:1059600002C0440F551F8A95E2F74093EA00109257
:10597000EA008091EB0088608093EB001092E900D0
:105980008091E800877F8093E8000E944A2AA6C0A1
:105990008111A4C01091A9021F778091E300807843
:1059A000812B8093E3008091E800877F8093E8005B
:1059B0000E944A2A8091E80080FFFCCF8091E3009A
:1059C00080688093E300111102C082E001C083E08F
:1059D0008093A60283C08058823008F07FC08091F7
:1059E000A9029091AA028C3D53E0950779F583E0D6
:1059F0008A838AE289834FB7F894DE01139620E008
:105A00003EE051E2E32FF0E050935700E49120FF95
:105A100003C0E295EF703F5FEF708E2F90E0EA30A9
:105A200010F0C79601C0C0968D939D932F5F2431CF
:105A300049F74FBF8091E800877F8093E8006AE2D2
:105A400070E0CE0101960E94512915C06091AB0211
:105A50007091AC02AE014F5F5F4F0E947528BC0190
:105A6000892BE1F19091E800977F9093E80089817C
:105A70009A810E94B4298091E8008B778093E80096
:105A80002DC0803859F58091E800877F8093E80029
:105A90008091A2028093F1008091E8008E7773CF0D
:105AA00081111CC09091A9029230C0F48091E8004D
:105AB000877F8093E8009093A2020E944A2A8091F7
:105AC000A202811106C08091E30087FD02C081E03F
:105AD00001C084E08093A6020E9471278091E800B3
